:020000040000FA
:100000000C9462000C948A000C948A000C948A0070
:100010000C948A000C948A000C948A000C948A0038
:100020000C948A000C948A000C948A000C948A0028
:100030000C948A000C948A000C948A000C948A0018
:100040000C9451070C948A000C94C1070C949B07E4
:100050000C948A000C948A000C948A000C948A00F8
:100060000C94F3070C948A00000000002400270081
:100070002A0000000000250028002B0000000000DE
:1000800023002600290004040404040404040202DA
:100090000202020203030303030301020408102007
:1000A0004080010204081020010204081020000012
:1000B0000008000201000003040700000000000027
:1000C00000000E0911241FBECFEFD8E0DEBFCDBF68
:1000D00011E0A0E0B1E0E4EEF3E202C005900D9281
:1000E000A433B107D9F723E0A4E3B1E001C01D9226
:1000F000A23BB207E1F710E0C2E6D0E004C02197CE
:10010000FE010E94EA11C136D107C9F70E94DF093A
:100110000C94F0110C940000E0914302F091440221
:10012000309719F08EE792E0099580917F02823F27
:1001300009F4BAC090F5803C09F499C0B8F480394C
:1001400009F44FC040F4E0914702F0914802803832
:1001500009F44BC00895803A09F484C0E0914D023F
:10016000F0914E02803B09F440C00895803E09F4AE
:1001700062C040F4E0915102F0915202803D09F4D6
:100180007AC00895803F09F47DC0E0915702F09154
:100190005802813F09F49BC008958A3FC1F1A8F439
:1001A000863F09F499C040F4E0915B02F0915C0253
:1001B000833F09F48CC00895883F09F1E091630200
:1001C000F0916402893FF9F008958C3F51F120F1DC
:1001D0008E3F61F1E0916B02F0916C028F3F99F0DC
:1001E0000895E0914902F0914A02309709F479C0EC
:1001F000409181026091800280917E020994E09199
:100200005F02F0916002309709F46BC00994E091AD
:100210006102F0916202F7CFE0916502F09166020F
:10022000F2CFE0916702F0916802EDCFE0916902B0
:10023000F0916A02E8CFE0915302F09154023097B6
:1002400009F44FC06091810220E8629FB00111243F
:1002500060787F73809180028F77682B70528091D5
:100260007E020994E0914B02F0914C02BECFE091E6
:100270004F02F09150023097A1F16091800280917D
:100280007E020994E0915502F0915602309749F1AF
:1002900060918002709181026138710510F060E810
:1002A00070E082E892E00994E0915902F0915A02DC
:1002B0003097B9F08091810220E8829FC00111241B
:1002C00080789F73209180022F77822B099430973A
:1002D00041F0809180020994E0915D02F0915E020C
:1002E00092CF0895833081F028F4813099F08230E4
:1002F000A9F008958730A9F08830C9F08430B1F4AE
:10030000809180008F7D03C0809180008F778093E3
:100310008000089584B58F7784BD089584B58F7D5E
:10032000FBCF8091B0008F778093B00008958091CB
:10033000B0008F7DF9CFCF93DF93282F30E0F90104
:10034000E255FF4F8491F901E656FF4FD491F90130
:10035000EA57FF4FC491CC23A1F081110E94720192
:10036000EC2FF0E0EE0FFF1FE458FF4FA591B49182
:10037000EC91ED2381E090E009F480E0DF91CF91F2
:10038000089580E090E0FACF1F93CF93DF93282F5A
:1003900030E0F901E255FF4F8491F901E656FF4F35
:1003A000D491F901EA57FF4FC491CC23A9F0162F3D
:1003B00081110E947201EC2FF0E0EE0FFF1FEE584A
:1003C000FF4FA591B4918FB7F894EC91111108C02B
:1003D000D095DE23DC938FBFDF91CF911F910895DD
:1003E000DE2BF8CFCF93DF9390E0FC01E656FF4F72
:1003F00024918A579F4FFC0184918823D1F090E08B
:10040000880F991FFC01E859FF4FA591B491FC0199
:10041000EE58FF4FC591D49161110EC09FB7F8946B
:100420008C91E22FE0958E238C932881E223E88340
:100430009FBFDF91CF9108958FB7F894EC91E22B95
:10044000EC938FBFF6CF3FB7F8948091CB0190919A
:10045000CC01A091CD01B091CE0126B5A89B05C0DD
:100460002F3F19F00196A11DB11D3FBFBA2FA92F33
:10047000982F8827BC01CD01620F711D811D911D30
:1004800042E0660F771F881F991F4A95D1F708959C
:100490002FB7F8946091C7017091C8018091C9018C
:1004A0009091CA012FBF0895AF92BF92CF92DF9271
:1004B000EF92FF920F931F93CF93DF936C017B0119
:1004C0008B01040F151FEB015E01AE18BF08C017AA
:1004D000D10759F06991D601ED91FC910190F0811D
:1004E000E02DC6010995892B79F7C501DF91CF91E0
:1004F0001F910F91FF90EF90DF90CF90BF90AF9042
:100500000895FC01538D448D252F30E0842F90E019
:10051000821B930B541710F0CF96089501970895FE
:10052000FC01918D828D981761F0A28DAE0FBF2FC7
:10053000B11D5D968C91928D9F5F9F73928F90E01D
:1005400008958FEF9FEF0895FC01918D828D98178C
:1005500031F0828DE80FF11D858D90E008958FEFC9
:100560009FEF0895FC01918D228D892F90E0805C92
:100570009F4F821B91098F739927089583E193E020
:100580000E94B20221E0892B09F420E0822F089515
:1005900080E090E0892B29F00E94BE0281110C942A
:1005A00000000895FC01A48DA80FB92FB11DA35A16
:1005B000BF4F2C91848D90E001968F739927848F83
:1005C000A689B7892C93A089B1898C9183708064A6
:1005D0008C93938D848D981306C00288F389E02D47
:1005E00080818F7D80830895EF92FF920F931F93F8
:1005F000CF93DF93EC0181E0888F9B8D8C8D9813D6
:100600001AC0E889F989808185FF15C09FB7F894E1
:10061000EE89FF896083E889F9898081837080642D
:1006200080839FBF81E090E0DF91CF911F910F9178
:10063000FF90EF900895F62E0B8D10E00F5F1F4F87
:100640000F731127E02E8C8D8E110CC00FB607FC96
:10065000FACFE889F989808185FFF5CFCE010E9424
:10066000D202F1CFEB8DEC0FFD2FF11DE35AFF4FBE
:10067000F0829FB7F8940B8FEA89FB8980818062B2
:10068000CFCFCF93DF93EC01888D8823B9F0AA896F
:10069000BB89E889F9898C9185FD03C0808186FD3D
:1006A0000DC00FB607FCF7CF8C9185FFF2CF80818C
:1006B00085FFEDCFCE010E94D202E9CFDF91CF912D
:1006C00008951F93CF93DF93C1E0C0935601882311
:1006D00099F1D091B8001091BA008091BC008A7B4A
:1006E0008093BC0060E082E10E94C40160E083E18D
:1006F0000E94C4011092F501C093F4011092CF0141
:1007000061E082E10E94C40161E083E10E94C401D2
:100710008091B9008E7F8093B9008091B9008D7F60
:100720008093B90088E48093B80085E48093BC008E
:100730001093BA00D093B800DF91CF911F91089524
:100740008F929F92AF92BF92CF92DF92EF92FF92E1
:100750000F931F93CF93DF93D0911E02D13208F0F5
:10076000D7C0182FC0911D020E9423026B017C018B
:100770008091F50181116BC082E08093F5011093A7
:10078000F4018FEF8093F3011092F201D093F10105
:10079000ADEFB1E0E1EDF1E080E0D81391C010924F
:1007A000D0018091D001CC0FC82BC093D001809193
:1007B000CF01813009F088C01092CF010E9423023E
:1007C0006B017C018091D0018093BB008091F70187
:1007D0009091F801A091F901B091FA01892B8A2B2F
:1007E0008B2BA1F00E9423020091F7011091F801D8
:1007F0002091F9013091FA016C197D098E099F0948
:10080000061717072807390708F442C08091BC0073
:1008100083FDD8CF85EC8093BC000E9423026B013E
:100820007C018091F501823009F450C08091F30180
:100830008F3F09F46FC08091F301803209F46CC0DE
:100840008091F301803309F469C084E026C080916F
:10085000F7019091F801A091F901B091FA01892B6B
:100860008A2B8B2B09F484CF0E9423028090F701FE
:100870009090F801A090F901B090FA016C197D09EF
:100880008E099F0986169706A806B90608F070CF4C
:100890008091F6010E94610385E01092FC011092A4
:1008A0001E021092FB01DF91CF911F910F91FF90DB
:1008B000EF90DF90CF90BF90AF909F908F90089572
:1008C0009D9191938F5F69CF85EEA5CF8091F701C0
:1008D0009091F801A091F901B091FA01892B8A2B2E
:1008E0008B2B09F49ECF0E9423020091F7011091F7
:1008F000F8012091F9013091FA016C197D098E09F6
:100900009F09061717072807390708F08ACFC0CFB5
:1009100081E0C3CF80E0C1CF82E0BFCF83E0BDCF15
:1009200020917701260F3327331F21323105ECF454
:100930002091F501FC0190E080E0243069F082E034
:100940000895A09177012191AC01495A5E4FA40FFF
:10095000B52FB11D2C930196861798F380917701DE
:10096000680F6093770180E0089581E0089508950D
:10097000E091550180915401E81730F4F0E0EC5C0F
:10098000FE4F808190E008958FEF9FEF0895909142
:100990005501809154012FEF3FEF981748F4E92F4C
:1009A000F0E0EC5CFE4F208130E09F5F90935501BA
:1009B000C90108958091540190915501891B990BAB
:1009C0000895CF92DF92EF92FF920F931F93CF93F0
:1009D000DF937C01CB018A012091FB01222389F066
:1009E000EB016B01C40ED51ECC15DD0569F06991D4
:1009F000D701ED91FC910190F081E02DC70109959F
:100A0000F3CF642F0E949004C801DF91CF911F9112
:100A10000F91FF90EF90DF90CF900895CF93DF93E9
:100A20001F92CDB7DEB769832091FB012223F9F035
:100A300020911E02203258F021E030E0FC01338387
:100A4000228390E080E00F90DF91CF910895809114
:100A5000FC01E82FF0E0E350FE4F998190838F5F17
:100A60008093FC0180931E0281E090E0ECCF61E076
:100A7000CE0101960E949004F7CF90E080E00895A7
:100A8000CF93DF93EC016A838E819F81288131E0CF
:100A90003093FB0120931D021092FC0110921E0264
:100AA000DC01ED91FC910190F081E02D099581E050
:100AB0000E94A00390E09D838C83DF91CF910895E5
:100AC000CF93DF93EC01888191E09093FB018093B9
:100AD0001D021092FC0110921E0281E00E94A003F0
:100AE000811108C06FEFCE010E94400581E0DF91C7
:100AF000CF91089580E0FBCF87FF0AC09CE0980F5C
:100B0000923030F08D3F21F0803F18F4807F0895BF
:100B100080E00895982F9F7E282F2F7C203839F071
:100B2000803E29F081E0903C19F080E0089581E05A
:100B30000895DC018D919C91DC01ED91FC91019077
:100B4000F081E02D09940F931F93CF93DF93082F2B
:100B5000162FC3E4D2E060E98AA59BA50E949905FF
:100B6000602F6F778AA59BA50E949905612F6F77EB
:100B70008AA59BA5DF91CF911F910F910C949905A8
:100B80006D3F48F46A3F10F4683F39F4FC018081FE
:100B900091810C9499056E3FC8F708951F93CF93E8
:100BA000DF93813E30F52150203168F587FF2BC05F
:100BB000D42F162FC82F622F682B80916D02909131
:100BC0006E020E949905612F6F7780916D0290915E
:100BD0006E020E949905CF7EC03CA9F06D2F6F7701
:100BE00080916D0290916E02DF91CF911F910C94D4
:100BF0009905883F40F0682F8DE692E0DF91CF9114
:100C00001F910C94C005DF91CF911F9108954F92D1
:100C10005F926F927F928F929F92AF92BF92EF926C
:100C2000FF920F931F93CF93DF93EC010A816830FB
:100C300030F081E890E09D838C8310E0B5C081E0C6
:100C400090E07C0102C0EE0CFF1C6A95E2F7602F79
:100C50006E296A83CE010E94400518810E942302FA
:100C60004B015C018091F501811164C081E08093AA
:100C7000F5018093F4019FEF9093F3011092F2013C
:100C80001092F1018093D0018091D001110F182BA7
:100C90001093D0018091CF01813009F099C010925A
:100CA000CF010E9423024B015C018091D00180930F
:100CB000BB008091F7019091F801A091F901B091EA
:100CC000FA01892B8A2B8B2BA1F00E9423024090E2
:100CD000F7015090F8016090F9017090FA016819DD
:100CE00079098A099B09461657066806790608F4A9
:100CF00042C08091BC0083FDD8CF85EC8093BC00BE
:100D00000E9423024B015C018091F501813009F4BE
:100D100061C08091F20181117FC08091F201A1ED4B
:100D2000B1E0E4E3F1E090E0981751F12D912193C7
:100D30009F5FFACF8091F7019091F801A091F9019E
:100D4000B091FA01892B8A2B8B2B09F48BCF0E944F
:100D500023024090F7015090F8016090F9017090E3
:100D6000FA01681979098A099B0946165706680627
:100D7000790608F077CF8091F6010E94610380E048
:100D80001092550180935401813009F447C082E8E4
:100D900090E09D838C83898190E08E219F2111E0DA
:100DA000181619060CF049CF602FCE010E9440059D
:100DB000812FDF91CF911F910F91FF90EF90BF9006
:100DC000AF909F908F907F906F905F904F9008951D
:100DD00085EE94CF8091F7019091F801A091F901EF
:100DE000B091FA01892B8A2B8B2B09F48DCF0E94AD
:100DF00023024090F7015090F8016090F901709043
:100E0000FA01681979098A099B0946165706680686
:100E1000790608F079CFAFCF81E081CF8E819F81B5
:100E2000DC01ED91FC910284F385E02D0995898325
:100E3000B2CF85ED8093BC008091F7019091F801CD
:100E4000A091F901B091FA010796A11DB11D23E00F
:100E5000B695A795979587952A95D1F72091BC00CF
:100E600024FD03C01092F50108954091F7015091BF
:100E7000F8016091F9017091FA01452B462B472B3F
:100E800069F30097A105B10541F02AE22A95F1F72F
:100E900000C00197A109B109E1CF8091F6010C943E
:100EA00061031F920F920FB60F9211242F933F935D
:100EB0008F939F93AF93BF938091C7019091C80187
:100EC000A091C901B091CA013091C60123E0230F5E
:100ED0002D3758F50196A11DB11D2093C6018093B1
:100EE000C7019093C801A093C901B093CA01809132
:100EF000CB019091CC01A091CD01B091CE01019692
:100F0000A11DB11D8093CB019093CC01A093CD0185
:100F1000B093CE01BF91AF919F918F913F912F914F
:100F20000F900FBE0F901F90189526E8230F029682
:100F3000A11DB11DD2CF1F920F920FB60F92112497
:100F40002F933F934F935F936F937F938F939F93D1
:100F5000AF93BF93EF93FF9383E193E00E94D2029C
:100F6000FF91EF91BF91AF919F918F917F916F9181
:100F70005F914F913F912F910F900FBE0F901F9057
:100F800018951F920F920FB60F9211242F938F93E3
:100F90009F93EF93FF93E0912303F09124038081CB
:100FA000E0912903F0912A0382FD1BC0908180917A
:100FB0002C038F5F8F7320912D03821741F0E091F6
:100FC0002C03F0E0ED5EFC4F958F80932C03FF9196
:100FD000EF919F918F912F910F900FBE0F901F90C7
:100FE00018958081F4CF1F920F920FB60F921124A3
:100FF0002F933F934F935F936F937F938F939F9321
:10100000AF93BF93EF93FF938091B900887F8036B1
:1010100009F44AC0F0F5883209F4A5C018F580310A
:1010200009F499C0B8F4882309F4F5C0883009F4AC
:1010300092C0FF91EF91BF91AF919F918F917F915E
:101040006F915F914F913F912F910F900FBE0F9035
:101050001F901895883109F486C0803251F780932B
:10106000F30114C0803409F49BC040F48033B9F319
:101070008833F9F68093F30185ECAEC0803509F42E
:1010800083C0883509F494C0883499F60E94190702
:10109000D0CF883909F48AC038F5883729F050F460
:1010A000883611F0803729F683E08093F50110929D
:1010B000990155C0883809F479C0803919F0803811
:1010C00009F0B7CF80919901803208F06FC0E091AC
:1010D000990181E08E0F809399018091BB00F0E02F
:1010E000E758FE4F80833BC0803B39F0D0F4803A14
:1010F00009F477C0883A09F09CCF84E08093F50129
:101100001092780110927701F0E0E0E0099580916B
:10111000770181110FC081E0809377011092570110
:1011200009C0803C09F4A8CF883C09F4A5CF883BCE
:1011300009F07FCFE091780181E08E0F80937801F4
:10114000F0E0E95AFE4F80818093BB0090917801D6
:101150008091770129C08091D0018093BB0085ECFC
:101160008093BC0066CF9091F2018091F1019817B5
:1011700058F5E091F20181E08E0F8093F201F0E0EA
:10118000EF52FE4F8081E9CFE091F20181E08E0FB6
:101190008093F2018091BB00F0E0EF52FE4F80831C
:1011A0009091F2018091F1019817C8F285E8D8CFAB
:1011B000E091F20181E08E0F8093F2018091BB00FB
:1011C000F0E0EF52FE4F80838091F40181115ECFF9
:1011D00081E08093CF0184EA8093BC001092F501F6
:1011E00028CF85EC8093BC001092F5018091990185
:1011F000803230F4E0919901F0E0E758FE4F108220
:101200006091990170E089E791E0F0E0E0E00995F4
:10121000109299010ECF1092F30138CFCF93DF9344
:10122000E3E1F3E01382128248EE53E060E070E005
:10123000448355836683778384E191E0918380833F
:1012400085EC90E09587848784EC90E0978786878B
:1012500080EC90E0918B808B81EC90E0938B828B83
:1012600082EC90E0958B848B86EC90E0978B868B5C
:10127000118E128E138E148EAFE2B2E013961C9272
:101280001E92129714964D935D936D937C931797CE
:1012900086E291E011969C938E93F093B103E093D4
:1012A000B003E3E4F2E0118210821382128215820D
:1012B000148217821682118610861386128615866E
:1012C000148617861686118A108A138A128A158A3E
:1012D000148A178A168A118E108E138E128E158E0E
:1012E000148E178E168E11A210A213A212A215A28E
:1012F00014A217A216A211A610A680EB93E093A742
:1013000082A714A615A616A613AA12AA15AA14AA8D
:101310008FEF9FEF97AB86AB91AF80AF83E0809369
:101320007D0213AE14AE15AE16AE10920203E2E8C3
:10133000F2E080E8EF0119928A95E9F7109205032F
:1013400010920603109207031092080310920903EB
:1013500010920A0310920B0310920C0310920D03CB
:1013600010920E0310920F031092100310921103AB
:1013700010921203EBE3F2E080E28083B783A6834E
:1013800011828FEF8283838315821482E7E2F2E079
:1013900091E29083B783A68311828283838315822F
:1013A0001482EFE1F2E092E29083B783A683118288
:1013B0008283838315821482DF91CF91089578947C
:1013C00084B5826084BD84B5816084BD85B582604A
:1013D00085BD85B5816085BD80916E0081608093FB
:1013E0006E00109281008091810082608093810064
:1013F0008091810081608093810080918000816074
:10140000809380008091B10084608093B1008091CE
:10141000B00081608093B00080917A0084608093F6
:101420007A0080917A00826080937A0080917A00BD
:10143000816080937A0080917A00806880937A003E
:101440001092C10060E084E00E94F20160E085E05B
:101450000E94F20160E087E00E94F20160E087E014
:101460000E94F20160E086E00E94F20161E088E003
:101470000E94F20161E089E00E94F20160E08AE0EE
:101480000E94F20160E08BE00E94F20160E08EE0D9
:101490000E94F20160E08FE00E94F20160E080E1D2
:1014A0000E94F20160E081E10E94F201E0916D0290
:1014B000F0916E020190F081E02DA089B189D2E017
:1014C000DC93A485B5851C92A685B7858FE38C93A4
:1014D000108EA489B589C6E0CC93A289B3898C917A
:1014E00080618C93A289B3898C9188608C93A28946
:1014F000B3898C9180688C930288F389E02D808178
:101500008F7D808310926F02109271021092700290
:101510001092780210927702109276021092750261
:101520008FEF9FEF90937A028093790290937C02E1
:1015300080937B020E944802609305037093060328
:1015400080930703909308031092020310927F0286
:1015500010927E0210928002109281021092040377
:101560001092030380917D0281708260816080937C
:101570007D02E0912303F0912403D083E0911F03C7
:10158000F09120031082E0912103F091220380E189
:10159000808310922B03E0912703F0912803C083EE
:1015A000E0912503F0912603808180618083E091A2
:1015B0002503F0912603808188608083E0912503D4
:1015C000F0912603808180688083E0912503F0916B
:1015D000260380818F7D80838BE392E00E946005EB
:1015E00087E292E00E9460058FE192E00E94600530
:1015F00022242394312CC1E068E0C62E61E0D62E6F
:101600000AE911E0F12CE12CD6018C91B2E0CB0E6D
:10161000D11C8E3008F08E508770806480937C00DF
:1016200080917A00806480937A0080917A0086FDB0
:10163000FCCF80917800909179006FEF73E0681B88
:10164000790B072E000C880B990B0E94C81020E024
:1016500030EC4FE754E40E941E1020E030E04EEFE3
:1016600052E40E947D112B013C01F80160817181DF
:10167000072E000C880B990B0E94C8109B01AC012F
:10168000C301B2010E94AC0F4B015C0120E030E0CD
:10169000A9010E94781118160CF0FCC020E030E07F
:1016A00040E050E4C501B4010E94781187FFFDC0FD
:1016B0000E5F1F4FB2E0EB0EF11CE8E0EE16F104F6
:1016C00009F0A2CF0E9448026B017C0184E00E94D5
:1016D0009B0121E0009709F020E03091A20123173F
:1016E000B1F0FBE0CF16D104E104F10480F02093C7
:1016F000A201892B61F48091BC019091BD018830D9
:1017000091052CF401969093BD018093BC010E9439
:1017100048026B017C0185E00E949B0121E000975B
:1017200009F020E03091A3012317B1F03BE0C3168C
:10173000D104E104F10480F02093A301892B61F42A
:101740008091BC019091BD01181619062CF40197E7
:101750009093BD018093BC010E9448026B017C0103
:1017600087E00E949B0121E0009709F020E0309182
:10177000A401231779F0ABE0CA16D104E104F10407
:1017800048F02093A4016FE7892B09F060E080E026
:101790000E94A3050E9448026B017C0186E00E9422
:1017A0009B0121E0009709F020E03091A50123176B
:1017B00079F0BBE0CB16D104E104F10448F02093AA
:1017C000A5016FE7892B09F060E08CE00E94A3057A
:1017D000F0906F02E0E1EF1508F496C0E0916D0221
:1017E000F0916E0280819181DC01ED91FC91008489
:1017F000F185E02D0995892B09F486C080911203AB
:101800008E7F80931203E0916D02F0916E028081D1
:101810009181DC01ED91FC910284F385E02D099525
:10182000182F8D3F09F470C0809177029091780253
:10183000009709F004C21093720200917002802F89
:101840000E947C050E948A05882351F017FD08C07C
:101850000093720210937302309278022092770202
:1018600010917202812F0E947C05813F09F4B2C160
:1018700008F047C1803B39F048F5803921F0803AC3
:1018800011F0803859F523E030E030937602209350
:101890007502A6C120E030E040E050ECC501B40183
:1018A0000E94191018160CF403CFC301B2010E9454
:1018B0009010B62EA72EF701E050FF4F80810E94B6
:1018C000A305D801BC921196AC92F2CE803D09F4EA
:1018D00081C108F005C1803C09F47CC180911203EC
:1018E000816080931203E0914502F09146023097A7
:1018F00009F0099510927802109277021092760200
:1019000010927502109270026091AA018091AB0151
:10191000882361F1662351F10E944802C090A6011C
:10192000D090A701E090A801F090A9016C197D0961
:101930008E099F096D3271408105910508F4F5C249
:101940000E9448026C197D098E099F096935724011
:101950008105910550F00E9448026093A6017093A2
:10196000A7018093A8019093A90161E089E00E94FA
:10197000C4018CEA682E81E0782E9EEBC92E91E09E
:10198000D92E24EB422E21E0522E10E000E03CE064
:10199000E32E0E9448024B015C01F02E602F8BE386
:1019A00092E00E940706982F81E0911180E0D30118
:1019B0002D913D018217F9F0BBE08B169104A10433
:1019C000B104C8F0F301319780834091BC0150917C
:1019D000BD01E49E9001E59E300D1124285E3F4F2D
:1019E000822F9111A4C20115110511F08F2D820FC4
:1019F0006FE70E94A3050E9448024B015C016F2D16
:101A000087E292E00E940706982F81E0911180E022
:101A1000F20121912F018217F9F0FBE08F1691045A
:101A2000A104B104C8F0F201319780834091BC0158
:101A30005091BD01E49E9001E59E300D1124205E81
:101A40003F4F822F91117AC20115110511F08F2D90
:101A5000820F6FE70E94A3050E9448024B015C01C0
:101A60006F2D8FE192E00E940706982F81E091117F
:101A700080E0D6012D916D018217F9F0BBE08B1645
:101A80009104A104B104C8F0F6013197808340911C
:101A9000BC015091BD01E49E9001E59E300D1124E2
:101AA000285D3F4F822F911150C20115110511F091
:101AB0008F2D820F6FE70E94A3050F5F1F4F083025
:101AC000110509F066CFE0E0F0E0EF2B09F494CDCA
:101AD0000E94BE02882309F48ECD0E9400008BCDA7
:101AE000803E09F4D0CE803F09F0F8CEA0E8B0E007
:101AF000B0937602A09375021092700280938202D6
:101B00006FC0873F99F308F05EC0833F09F462C05D
:101B100008F4B9CE863F09F0E1CE80937F0210929F
:101B20007E021092800210928102C09302031092F2
:101B300078021092770210927602109275028091CC
:101B40007F02803939F480918102811103C0F0E86D
:101B5000F0937F0280917F028058813638F4809123
:101B60007E02F81619F0D12CF11004C00E948C00EE
:101B7000DD24D39490917D02392F317090FF2CC1D8
:101B8000892F8E7F09F428C180917F0220E8280FD9
:101B9000213608F038C120917E02F21619F031E0AA
:101BA000F11030E09695923009F414C1933009F4A5
:101BB00027C1913009F010C14091810260918002EB
:101BC0000E94CE0509C18D3F08F4A7CF8E3F08F0D3
:101BD000A4CF84CEE2E0F0E0F0937602E0937502C9
:101BE00020917702309178024091750250917602EF
:101BF0004150510924173507D8F080937F021F7098
:101C00001F5F10937E028091730280938002109276
:101C10008102309204032092030310927802109202
:101C200077021092760210927502C093020387CF5A
:101C30002F5F3F4F309378022093770265CE17FFD6
:101C40000CC01D3F08F04BC0183F08F04BC0103FC0
:101C500009F455C0173F09F452C020917202FC01EB
:101C6000ED5BFD4F203F19F0273F09F070C017AF23
:101C70000091750210917602980121503109821766
:101C8000930708F4A1C0D090720220EFD21619F089
:101C900037EFD3125EC01091010380EF80930103F0
:101CA00080937F0290E890938002109281021092BC
:101CB0007E02A0E8B0E0B0930403A0930303C093B6
:101CC00002030E948C00B7EFB0938202109383024C
:101CD000E2E0F0E0F0937802E093770215CE1E3F49
:101CE00008F4BBCF10937F02109280021092810201
:101CF00010927E02309204032092030396CF20912B
:101D00008202203F19F0273F09F0E8CD9C012F5FA8
:101D10003F4F8D5B9D4FFC0117AFF0EFF0937F02BB
:101D2000209380023093810210927E02309304034C
:101D300020930303C093020310927802109277025B
:101D4000109276021092750210927002F8CE17A7C8
:101D50008FCF8D2D0E947C05D82F80937F020E940B
:101D60008A05882339F18D2D8F708F5F80937E02D5
:101D70008091730280938002809174020330110578
:101D800009F080E08093810210927802109277022D
:101D90001092760210927502C0930203D03B39F084
:101DA00060F4D03921F0D03A11F0D03869F6D092F1
:101DB0007002C5CE10927E02DBCFD03DC1F3D03E83
:101DC000B1F3D03C09F6F3CF01969093780280935B
:101DD00077029ACD3111F0CEDD2009F495CD109126
:101DE000800280918102811192C0612F88E00E945F
:101DF000C40181E0111101C080E08093AB0184CD6A
:101E00003111EACFD9CEE0E1E80FE03128F7F0E078
:101E1000E45FF04F0C94EA11220F730F540F420F3E
:101E2000EC0EEC0E1C0FEC0E1C0FEC0E1C0F1C0F1E
:101E30001C0FEC0E1C0F1C0F682F8DE692E00E9409
:101E4000C005CACFE0908002F090810221E8E2163E
:101E5000F10418F050E8E52EF12C03E412E0C8017B
:101E6000835492408E159F0508F0B6CFD801DF96B7
:101E70006C9180916D0290916E020E9499050F5FA6
:101E80001F4FEDCF1091800263EF80916D02909112
:101E90006E020E949905612F6F7780916D0290917B
:101EA0006E020E94990598CF00918102B0E80B9FC5
:101EB0008001112480918002082B62EF80916D02D5
:101EC00090916E020E949905602F6F7780916D024C
:101ED00090916E020E949905000F012F001F110BB7
:101EE0001195602FD9CF60918002E0E16E9FB00123
:101EF00011246077109181021F70162B61EF809181
:101F00006D0290916E020E949905612FC6CF8130BB
:101F100031F4111101C080E08093AA01F5CC823028
:101F200009F0F2CC1092AB01EFCC60E01FCD0115AF
:101F3000110511F08F2D820F60E05BCD01151105A9
:101F400011F08F2D820F60E085CD0115110511F084
:101F50008F2D820F60E0AFCD5058BB27AA270E947B
:101F6000C40F0C943E110E94301138F00E943711BA
:101F700020F039F49F3F19F426F40C942D110EF43F
:101F8000E095E7FB0C942711E92F0E944F1158F3BD
:101F9000BA17620773078407950720F079F4A6F54E
:101FA0000C9471110EF4E0950B2EBA2FA02D0B019D
:101FB000B90190010C01CA01A0011124FF27591B8E
:101FC00099F0593F50F4503E68F11A16F040A22F94
:101FD000232F342F4427585FF3CF46953795279505
:101FE000A795F0405395C9F77EF41F16BA0B620B04
:101FF000730B840BBAF09150A1F0FF0FBB1F661F4B
:10200000771F881FC2F70EC0BA0F621F731F841F8D
:1020100048F4879577956795B795F7959E3F08F0B3
:10202000B0CF9395880F08F09927EE0F9795879575
:1020300008950E94031108F481E008950E9432106F
:102040000C943E110E94371158F00E94301140F05C
:1020500029F45F3F29F00C94271151110C9472114F
:102060000C942D110E944F1168F39923B1F355235D
:1020700091F3951B550BBB27AA276217730784079B
:1020800038F09F5F5F4F220F331F441FAA1FA9F331
:1020900035D00E2E3AF0E0E832D091505040E6951F
:1020A000001CCAF72BD0FE2F29D0660F771F881F80
:1020B000BB1F261737074807AB07B0E809F0BB0B73
:1020C000802DBF01FF2793585F4F3AF09E3F510587
:1020D00078F00C9427110C9472115F3FE4F3983E52
:1020E000D4F3869577956795B795F7959F5FC9F770
:1020F000880F911D9695879597F90895E1E0660FF1
:10210000771F881FBB1F621773078407BA0720F069
:10211000621B730B840BBA0BEE1F88F7E0950895D2
:102120000E9497106894B1110C94721108950E9446
:10213000571188F09F5798F0B92F9927B751B0F0F1
:10214000E1F0660F771F881F991F1AF0BA95C9F73B
:1021500014C0B13091F00E947111B1E008950C9457
:102160007111672F782F8827B85F39F0B93FCCF30A
:10217000869577956795B395D9F73EF490958095B8
:10218000709561957F4F8F4F9F4F0895E89409C0D8
:1021900097FB3EF490958095709561957F4F8F4F9A
:1021A0009F4F9923A9F0F92F96E9BB279395F695B0
:1021B000879577956795B795F111F8CFFAF4BB0F2E
:1021C00011F460FF1BC06F5F7F4F8F4F9F4F16C092
:1021D000882311F096E911C0772321F09EE8872F1C
:1021E000762F05C0662371F096E8862F70E060E0D8
:1021F0002AF09A95660F771F881FDAF7880F969551
:10220000879597F90895990F0008550FAA0BE0E8F4
:10221000FEEF16161706E807F907C0F012161306A8
:10222000E407F50798F0621B730B840B950B39F4E8
:102230000A2661F0232B242B252B21F408950A264E
:1022400009F4A140A6958FEF811D811D089597F98E
:102250009F6780E870E060E008959FEF80EC08954C
:1022600000240A9416161706180609060895002475
:102270000A9412161306140605060895092E0394EF
:10228000000C11F4882352F0BB0F40F4BF2B11F463
:1022900060FF04C06F5F7F4F8F4F9F4F089557FDC2
:1022A0009058440F551F59F05F3F71F04795880FC4
:1022B00097FB991F61F09F3F79F08795089512165B
:1022C00013061406551FF2CF4695F1DF08C0161607
:1022D00017061806991FF1CF8695710561050894B8
:1022E0000895E894BB2766277727CB0197F90895CF
:1022F0000E94031108F48FEF08950E9490110C942E
:102300003E110E94301138F00E94371120F09523C1
:1023100011F00C9427110C942D1111240C947211AE
:102320000E944F1170F3959FC1F3950F50E0551F18
:10233000629FF001729FBB27F00DB11D639FAA271A
:10234000F00DB11DAA1F649F6627B00DA11D661F69
:10235000829F2227B00DA11D621F739FB00DA11D8A
:10236000621F839FA00D611D221F749F3327A00D44
:10237000611D231F849F600D211D822F762F6A2FE0
:1023800011249F5750409AF0F1F088234AF0EE0F45
:10239000FF1FBB1F661F771F881F91505040A9F772
:1023A0009E3F510580F00C9427110C9472115F3FF1
:1023B000E4F3983ED4F3869577956795B795F795AE
:1023C000E7959F5FC1F7FE2B880F911D9695879526
:1023D00097F90895EE0FFF1F0590F491E02D0994F1
:1023E000F894FFCF04000500060007000E000F0060
:1023F0001000110000000000F402540281024103A9
:10240000B2029002A402000000000E05E1043D05A6
:08241000B704DA04C704B804A4
:107E0000112484B714BE81FFF0D085E080938100F7
:107E100082E08093C00088E18093C10086E0809377
:107E2000C20080E18093C4008EE0C9D0259A86E02C
:107E300020E33CEF91E0309385002093840096BBD3
:107E4000B09BFECF1D9AA8958150A9F7CC24DD24C4
:107E500088248394B5E0AB2EA1E19A2EF3E0BF2EE7
:107E6000A2D0813461F49FD0082FAFD0023811F036
:107E7000013811F484E001C083E08DD089C08234E0
:107E800011F484E103C0853419F485E0A6D080C0E4
:107E9000853579F488D0E82EFF2485D0082F10E0AE
:107EA000102F00270E291F29000F111F8ED06801E7
:107EB0006FC0863521F484E090D080E0DECF843638
:107EC00009F040C070D06FD0082F6DD080E0C81688
:107ED00080E7D80618F4F601B7BEE895C0E0D1E017
:107EE00062D089930C17E1F7F0E0CF16F0E7DF06D8
:107EF00018F0F601B7BEE89568D007B600FCFDCFD4
:107F0000A601A0E0B1E02C9130E011968C91119780
:107F100090E0982F8827822B932B1296FA010C0160
:107F200087BEE89511244E5F5F4FF1E0A038BF0790
:107F300051F7F601A7BEE89507B600FCFDCF97BE46
:107F4000E89526C08437B1F42ED02DD0F82E2BD052
:107F50003CD0F601EF2C8F010F5F1F4F84911BD097
:107F6000EA94F801C1F70894C11CD11CFA94CF0C13
:107F7000D11C0EC0853739F428D08EE10CD085E9AC
:107F80000AD08FE07ACF813511F488E018D01DD067
:107F900080E101D065CF982F8091C00085FFFCCF94
:107FA0009093C60008958091C00087FFFCCF809118
:107FB000C00084FD01C0A8958091C6000895E0E648
:107FC000F0E098E1908380830895EDDF803219F02E
:107FD00088E0F5DFFFCF84E1DECF1F93182FE3DFCA
:107FE0001150E9F7F2DF1F91089580E0E8DFEE27F6
:047FF000FF270994CA
:027FFE00040479
:00000001FF
